{
  "contractName": "InfyCoin",
  "abi": [
    {
      "inputs": [],
      "stateMutability": "nonpayable",
      "type": "constructor"
    },
    {
      "inputs": [],
      "name": "getBalance",
      "outputs": [
        {
          "internalType": "int256",
          "name": "",
          "type": "int256"
        }
      ],
      "stateMutability": "view",
      "type": "function",
      "constant": true
    },
    {
      "inputs": [
        {
          "internalType": "int256",
          "name": "amt",
          "type": "int256"
        }
      ],
      "name": "depositBalance",
      "outputs": [],
      "stateMutability": "nonpayable",
      "type": "function"
    },
    {
      "inputs": [
        {
          "internalType": "int256",
          "name": "amt",
          "type": "int256"
        }
      ],
      "name": "withdrawBalance",
      "outputs": [],
      "stateMutability": "nonpayable",
      "type": "function"
    }
  ],
  "bytecode": "0x608060405234801561001057600080fd5b506000808190555061010e806100276000396000f3fe6080604052348015600f57600080fd5b5060043610603c5760003560e01c806312065fe01460415780637c52caa314605d578063e51ed0a0146088575b600080fd5b604760b3565b6040518082815260200191505060405180910390f35b608660048036036020811015607157600080fd5b810190808035906020019092919050505060bc565b005b60b160048036036020811015609c57600080fd5b810190808035906020019092919050505060ca565b005b60008054905090565b806000540360008190555050565b80600054016000819055505056fea264697066735822122035c9a5e7c10eed5367f25b2e2c15207435c7ed867fe60ccfff0092539e82653164736f6c63430007060033",
  "immutableReferences": {},
  "source": "// SPDX-License-Identifier: GPL-3.0\r\n\r\npragma solidity >=0.7.0 <0.9.0;\r\n\r\n\r\n\r\ncontract InfyCoin{\r\n    int balance;\r\n    \r\n    constructor(){\r\n        balance = 0;\r\n    }\r\n    \r\n    function getBalance() view public returns(int){\r\n        return balance;\r\n    }\r\n    \r\n    \r\n    function depositBalance(int amt) public{\r\n        balance = balance + amt;\r\n    }\r\n    \r\n    \r\n    function withdrawBalance(int amt) public{\r\n        balance = balance - amt;\r\n    }\r\n}",
  "sourcePath": "D:/SagarWorkspace/web3dart/infurra/contracts/InfyCoin.sol",
  "compiler": {
    "name": "solc",
    "version": "0.7.6+commit.7338295f.Emscripten.clang"
  },
  "schemaVersion": "3.2.3",
  "updatedAt": "2021-05-07T09:18:03.664Z",
  "networkType": "ethereum",
  "devdoc": {
    "kind": "dev",
    "methods": {},
    "version": 1
  },
  "userdoc": {
    "kind": "user",
    "methods": {},
    "version": 1
  }
}